{
  "contractName": "SimpleDyDxFlashloan",
  "abi": [
    {
      "inputs": [],
      "stateMutability": "nonpayable",
      "type": "constructor"
    },
    {
      "anonymous": false,
      "inputs": [
        {
          "indexed": false,
          "internalType": "string",
          "name": "message",
          "type": "string"
        },
        {
          "indexed": false,
          "internalType": "uint256",
          "name": "val",
          "type": "uint256"
        }
      ],
      "name": "Log",
      "type": "event"
    },
    {
      "inputs": [],
      "name": "user",
      "outputs": [
        {
          "internalType": "address",
          "name": "",
          "type": "address"
        }
      ],
      "stateMutability": "view",
      "type": "function"
    },
    {
      "inputs": [
        {
          "internalType": "uint256",
          "name": "initialAmount",
          "type": "uint256"
        }
      ],
      "name": "depositDai",
      "outputs": [
        {
          "internalType": "bool",
          "name": "",
          "type": "bool"
        }
      ],
      "stateMutability": "nonpayable",
      "type": "function"
    },
    {
      "inputs": [
        {
          "internalType": "uint256",
          "name": "initialAmount",
          "type": "uint256"
        }
      ],
      "name": "withdrawDai",
      "outputs": [
        {
          "internalType": "bool",
          "name": "",
          "type": "bool"
        }
      ],
      "stateMutability": "nonpayable",
      "type": "function"
    },
    {
      "inputs": [
        {
          "internalType": "address",
          "name": "sender",
          "type": "address"
        },
        {
          "components": [
            {
              "internalType": "address",
              "name": "owner",
              "type": "address"
            },
            {
              "internalType": "uint256",
              "name": "number",
              "type": "uint256"
            }
          ],
          "internalType": "struct Account.Info",
          "name": "account",
          "type": "tuple"
        },
        {
          "internalType": "bytes",
          "name": "data",
          "type": "bytes"
        }
      ],
      "name": "callFunction",
      "outputs": [],
      "stateMutability": "nonpayable",
      "type": "function"
    },
    {
      "inputs": [
        {
          "internalType": "address",
          "name": "_tokenAddress",
          "type": "address"
        }
      ],
      "name": "withdrawToken",
      "outputs": [],
      "stateMutability": "nonpayable",
      "type": "function"
    }
  ],
  "bytecode": "0x6080604052736b175474e89094c44da98b954eedeac495271d0f6000806101000a81548173ffffffffffffffffffffffffffffffffffffffff021916908373ffffffffffffffffffffffffffffffffffffffff160217905550735d3a536e4d6dbd6114cc1ead35777bab948e3643600160006101000a81548173ffffffffffffffffffffffffffffffffffffffff021916908373ffffffffffffffffffffffffffffffffffffffff160217905550733d9819210a31b4961b30ef54be2aed79b9c9cd3b600260006101000a81548173ffffffffffffffffffffffffffffffffffffffff021916908373ffffffffffffffffffffffffffffffffffffffff16021790555073c00e94cb662c3520282e6f5717214004a7f26888600360006101000a81548173ffffffffffffffffffffffffffffffffffffffff021916908373ffffffffffffffffffffffffffffffffffffffff160217905550731e0447b19bb6ecfdae1e4ae1694b0c3659614e4e600460006101000a81548173ffffffffffffffffffffffffffffffffffffffff021916908373ffffffffffffffffffffffffffffffffffffffff160217905550348015620001b957600080fd5b5033600660006101000a81548173ffffffffffffffffffffffffffffffffffffffff021916908373ffffffffffffffffffffffffffffffffffffffff1602179055506000600167ffffffffffffffff8111156200023f577f4e487b7100000000000000000000000000000000000000000000000000000000600052604160045260246000fd5b6040519080825280602002602001820160405280156200026e5781602001602082028036833780820191505090505b509050735d3a536e4d6dbd6114cc1ead35777bab948e364381600081518110620002c1577f4e487b7100000000000000000000000000000000000000000000000000000000600052603260045260246000fd5b602002602001019073ffffffffffffffffffffffffffffffffffffffff16908173ffffffffffffffffffffffffffffffffffffffff16815250506000600260009054906101000a900473ffffffffffffffffffffffffffffffffffffffff1673ffffffffffffffffffffffffffffffffffffffff1663c2998238836040518263ffffffff1660e01b81526004016200035a91906200061c565b600060405180830381600087803b1580156200037557600080fd5b505af11580156200038a573d6000803e3d6000fd5b505050506040513d6000823e3d601f19601f82011682018060405250810190620003b5919062000500565b9050600081600081518110620003f4577f4e487b7100000000000000000000000000000000000000000000000000000000600052603260045260246000fd5b6020026020010151146200043f576040517f08c379a0000000000000000000000000000000000000000000000000000000008152600401620004369062000640565b60405180910390fd5b505062000796565b60006200045e620004588462000696565b62000662565b905080838252602082019050828560208602820111156200047e57600080fd5b60005b85811015620004b25781620004978882620004e9565b84526020840193506020830192505060018101905062000481565b5050509392505050565b600082601f830112620004ce57600080fd5b8151620004e084826020860162000447565b91505092915050565b600081519050620004fa816200077c565b92915050565b6000602082840312156200051357600080fd5b600082015167ffffffffffffffff8111156200052e57600080fd5b6200053c84828501620004bc565b91505092915050565b60006200055383836200055f565b60208301905092915050565b6200056a816200070f565b82525050565b60006200057d82620006d5565b620005898185620006ed565b93506200059683620006c5565b8060005b83811015620005cd578151620005b1888262000545565b9750620005be83620006e0565b9250506001810190506200059a565b5085935050505092915050565b6000620005e9602083620006fe565b91507f436f6d7074726f6c6c65722e656e7465724d61726b657473206661696c65642e6000830152602082019050919050565b6000602082019050818103600083015262000638818462000570565b905092915050565b600060208201905081810360008301526200065b81620005da565b9050919050565b6000604051905081810181811067ffffffffffffffff821117156200068c576200068b6200074d565b5b8060405250919050565b600067ffffffffffffffff821115620006b457620006b36200074d565b5b602082029050602081019050919050565b6000819050602082019050919050565b600081519050919050565b6000602082019050919050565b600082825260208201905092915050565b600082825260208201905092915050565b60006200071c8262000723565b9050919050565b600073ffffffffffffffffffffffffffffffffffffffff82169050919050565b6000819050919050565b7f4e487b7100000000000000000000000000000000000000000000000000000000600052604160045260246000fd5b620007878162000743565b81146200079357600080fd5b50565b612c9580620007a66000396000f3fe608060405234801561001057600080fd5b50600436106100575760003560e01c806335842f741461005c5780634f8632ba1461008c57806389476069146100aa5780638b418713146100c657806393a991af146100e2575b600080fd5b61007660048036038101906100719190611f21565b610112565b6040516100839190612609565b60405180910390f35b610094610226565b6040516100a19190612565565b60405180910390f35b6100c460048036038101906100bf9190611e16565b61024c565b005b6100e060048036038101906100db9190611e68565b61041d565b005b6100fc60048036038101906100f79190611f21565b610749565b6040516101099190612609565b60405180910390f35b6000600660009054906101000a900473ffffffffffffffffffffffffffffffffffffffff1673ffffffffffffffffffffffffffffffffffffffff163373ffffffffffffffffffffffffffffffffffffffff16146101a4576040517f08c379a000000000000000000000000000000000000000000000000000000000815260040161019b90612624565b60405180910390fd5b60006003600a846101b5919061290b565b6101bf91906128da565b9050600083826101cf9190612965565b905060006001905061021a600460009054906101000a900473ffffffffffffffffffffffffffffffffffffffff16736b175474e89094c44da98b954eedeac495271d0f848685610bda565b60019350505050919050565b600560009054906101000a900473ffffffffffffffffffffffffffffffffffffffff1681565b600660009054906101000a900473ffffffffffffffffffffffffffffffffffffffff1673ffffffffffffffffffffffffffffffffffffffff163373ffffffffffffffffffffffffffffffffffffffff16146102dc576040517f08c379a00000000000000000000000000000000000000000000000000000000081526004016102d390612624565b60405180910390fd5b60008173ffffffffffffffffffffffffffffffffffffffff166370a08231306040518263ffffffff1660e01b81526004016103179190612565565b60206040518083038186803b15801561032f57600080fd5b505afa158015610343573d6000803e3d6000fd5b505050506040513d601f19601f820116820180604052508101906103679190611f4a565b90508173ffffffffffffffffffffffffffffffffffffffff1663a9059cbb600660009054906101000a900473ffffffffffffffffffffffffffffffffffffffff16836040518363ffffffff1660e01b81526004016103c69291906125a9565b602060405180830381600087803b1580156103e057600080fd5b505af11580156103f4573d6000803e3d6000fd5b505050506040513d601f19601f820116820180604052508101906104189190611ecf565b505050565b600460009054906101000a900473ffffffffffffffffffffffffffffffffffffffff1673ffffffffffffffffffffffffffffffffffffffff163373ffffffffffffffffffffffffffffffffffffffff16146104ad576040517f08c379a00000000000000000000000000000000000000000000000000000000081526004016104a49061272e565b60405180910390fd5b3073ffffffffffffffffffffffffffffffffffffffff168373ffffffffffffffffffffffffffffffffffffffff161461051b576040517f08c379a000000000000000000000000000000000000000000000000000000000815260040161051290612672565b60405180910390fd5b6000818060200190518101906105319190611ef8565b90506000816020015190506000826000015173ffffffffffffffffffffffffffffffffffffffff166370a08231306040518263ffffffff1660e01b815260040161057b9190612565565b60206040518083038186803b15801561059357600080fd5b505afa1580156105a7573d6000803e3d6000fd5b505050506040513d601f19601f820116820180604052508101906105cb9190611f4a565b905081811015610610576040517f08c379a0000000000000000000000000000000000000000000000000000000008152600401610607906126b2565b60405180910390fd5b600115158360600151151514156106355761063383604001518460200151610f8f565b505b600015158360600151151514156106505761064e6111ba565b505b85600560006101000a81548173ffffffffffffffffffffffffffffffffffffffff021916908373ffffffffffffffffffffffffffffffffffffffff1602179055507fdd970dd9b5bfe707922155b058a407655cb18288b807e2216442bca8ad83d6b5816040516106c09190612700565b60405180910390a17fdd970dd9b5bfe707922155b058a407655cb18288b807e2216442bca8ad83d6b5826040516106f791906126d2565b60405180910390a17fdd970dd9b5bfe707922155b058a407655cb18288b807e2216442bca8ad83d6b5828261072c9190612965565b6040516107399190612644565b60405180910390a1505050505050565b6000600660009054906101000a900473ffffffffffffffffffffffffffffffffffffffff1673ffffffffffffffffffffffffffffffffffffffff163373ffffffffffffffffffffffffffffffffffffffff16146107db576040517f08c379a00000000000000000000000000000000000000000000000000000000081526004016107d290612624565b60405180910390fd5b60006003600a846107ec919061290b565b6107f691906128da565b9050600083826108069190612965565b9050600061084d600460009054906101000a900473ffffffffffffffffffffffffffffffffffffffff16736b175474e89094c44da98b954eedeac495271d0f848685610bda565b600260009054906101000a900473ffffffffffffffffffffffffffffffffffffffff1673ffffffffffffffffffffffffffffffffffffffff1663e9af0292306040518263ffffffff1660e01b81526004016108a89190612565565b600060405180830381600087803b1580156108c257600080fd5b505af11580156108d6573d6000803e3d6000fd5b50505050600360009054906101000a900473ffffffffffffffffffffffffffffffffffffffff1673ffffffffffffffffffffffffffffffffffffffff1663a9059cbb600660009054906101000a900473ffffffffffffffffffffffffffffffffffffffff16600360009054906101000a900473ffffffffffffffffffffffffffffffffffffffff1673ffffffffffffffffffffffffffffffffffffffff166370a08231306040518263ffffffff1660e01b81526004016109969190612565565b60206040518083038186803b1580156109ae57600080fd5b505afa1580156109c2573d6000803e3d6000fd5b505050506040513d601f19601f820116820180604052508101906109e69190611f4a565b6040518363ffffffff1660e01b8152600401610a03929190612580565b602060405180830381600087803b158015610a1d57600080fd5b505af1158015610a31573d6000803e3d6000fd5b505050506040513d601f19601f82011682018060405250810190610a559190611ecf565b5060008054906101000a900473ffffffffffffffffffffffffffffffffffffffff1673ffffffffffffffffffffffffffffffffffffffff1663a9059cbb600660009054906101000a900473ffffffffffffffffffffffffffffffffffffffff1660008054906101000a900473ffffffffffffffffffffffffffffffffffffffff1673ffffffffffffffffffffffffffffffffffffffff166370a08231306040518263ffffffff1660e01b8152600401610b0e9190612565565b60206040518083038186803b158015610b2657600080fd5b505afa158015610b3a573d6000803e3d6000fd5b505050506040513d601f19601f82011682018060405250810190610b5e9190611f4a565b6040518363ffffffff1660e01b8152600401610b7b9291906125a9565b602060405180830381600087803b158015610b9557600080fd5b505af1158015610ba9573d6000803e3d6000fd5b505050506040513d601f19601f82011682018060405250810190610bcd9190611ecf565b5060019350505050919050565b60008590506000610beb878761154d565b90506000610bf886611705565b90508673ffffffffffffffffffffffffffffffffffffffff1663095ea7b389836040518363ffffffff1660e01b8152600401610c359291906125a9565b602060405180830381600087803b158015610c4f57600080fd5b505af1158015610c63573d6000803e3d6000fd5b505050506040513d601f19601f82011682018060405250810190610c879190611ecf565b506000600367ffffffffffffffff811115610ccb577f4e487b7100000000000000000000000000000000000000000000000000000000600052604160045260246000fd5b604051908082528060200260200182016040528015610d0457816020015b610cf1611b22565b815260200190600190039081610ce95790505b509050610d118388611722565b81600081518110610d4b577f4e487b7100000000000000000000000000000000000000000000000000000000600052603260045260246000fd5b6020026020010181905250610db660405180608001604052808a73ffffffffffffffffffffffffffffffffffffffff168152602001848152602001888152602001871515815250604051602001610da2919061274e565b604051602081830303815290604052611862565b81600181518110610df0577f4e487b7100000000000000000000000000000000000000000000000000000000600052603260045260246000fd5b6020026020010181905250610e058383611993565b81600281518110610e3f577f4e487b7100000000000000000000000000000000000000000000000000000000600052603260045260246000fd5b60200260200101819052506000600167ffffffffffffffff811115610e8d577f4e487b7100000000000000000000000000000000000000000000000000000000600052604160045260246000fd5b604051908082528060200260200182016040528015610ec657816020015b610eb3611bbb565b815260200190600190039081610eab5790505b509050610ed1611ad3565b81600081518110610f0b577f4e487b7100000000000000000000000000000000000000000000000000000000600052603260045260246000fd5b60200260200101819052508473ffffffffffffffffffffffffffffffffffffffff1663a67a6a4582846040518363ffffffff1660e01b8152600401610f519291906125d2565b600060405180830381600087803b158015610f6b57600080fd5b505af1158015610f7f573d6000803e3d6000fd5b5050505050505050505050505050565b60008060009054906101000a900473ffffffffffffffffffffffffffffffffffffffff1673ffffffffffffffffffffffffffffffffffffffff1663095ea7b3735d3a536e4d6dbd6114cc1ead35777bab948e3643856040518363ffffffff1660e01b81526004016110019291906125a9565b602060405180830381600087803b15801561101b57600080fd5b505af115801561102f573d6000803e3d6000fd5b505050506040513d601f19601f820116820180604052508101906110539190611ecf565b50600160009054906101000a900473ffffffffffffffffffffffffffffffffffffffff1673ffffffffffffffffffffffffffffffffffffffff1663a0712d68846040518263ffffffff1660e01b81526004016110af9190612769565b602060405180830381600087803b1580156110c957600080fd5b505af11580156110dd573d6000803e3d6000fd5b505050506040513d601f19601f820116820180604052508101906111019190611f4a565b50600160009054906101000a900473ffffffffffffffffffffffffffffffffffffffff1673ffffffffffffffffffffffffffffffffffffffff1663c5ebeaec836040518263ffffffff1660e01b815260040161115d9190612769565b602060405180830381600087803b15801561117757600080fd5b505af115801561118b573d6000803e3d6000fd5b505050506040513d601f19601f820116820180604052508101906111af9190611f4a565b506001905092915050565b600080600160009054906101000a900473ffffffffffffffffffffffffffffffffffffffff1673ffffffffffffffffffffffffffffffffffffffff166317bfdfbc306040518263ffffffff1660e01b81526004016112189190612565565b602060405180830381600087803b15801561123257600080fd5b505af1158015611246573d6000803e3d6000fd5b505050506040513d601f19601f8201168201806040525081019061126a9190611f4a565b905060008054906101000a900473ffffffffffffffffffffffffffffffffffffffff1673ffffffffffffffffffffffffffffffffffffffff1663095ea7b3600160009054906101000a900473ffffffffffffffffffffffffffffffffffffffff16836040518363ffffffff1660e01b81526004016112e99291906125a9565b602060405180830381600087803b15801561130357600080fd5b505af1158015611317573d6000803e3d6000fd5b505050506040513d601f19601f8201168201806040525081019061133b9190611ecf565b50600160009054906101000a900473ffffffffffffffffffffffffffffffffffffffff1673ffffffffffffffffffffffffffffffffffffffff16630e752702826040518263ffffffff1660e01b81526004016113979190612769565b602060405180830381600087803b1580156113b157600080fd5b505af11580156113c5573d6000803e3d6000fd5b505050506040513d601f19601f820116820180604052508101906113e99190611f4a565b50600160009054906101000a900473ffffffffffffffffffffffffffffffffffffffff1673ffffffffffffffffffffffffffffffffffffffff166370a08231306040518263ffffffff1660e01b81526004016114459190612565565b60206040518083038186803b15801561145d57600080fd5b505afa158015611471573d6000803e3d6000fd5b505050506040513d601f19601f820116820180604052508101906114959190611f4a565b9050600160009054906101000a900473ffffffffffffffffffffffffffffffffffffffff1673ffffffffffffffffffffffffffffffffffffffff1663db006a75826040518263ffffffff1660e01b81526004016114f29190612769565b602060405180830381600087803b15801561150c57600080fd5b505af1158015611520573d6000803e3d6000fd5b505050506040513d601f19601f820116820180604052508101906115449190611f4a565b50600191505090565b60008083905060008173ffffffffffffffffffffffffffffffffffffffff1663295c39a56040518163ffffffff1660e01b815260040160206040518083038186803b15801561159b57600080fd5b505afa1580156115af573d6000803e3d6000fd5b505050506040513d601f19601f820116820180604052508101906115d39190611f4a565b9050600080600090505b828110156116c3578373ffffffffffffffffffffffffffffffffffffffff1663062bd3e9826040518263ffffffff1660e01b815260040161161e9190612769565b60206040518083038186803b15801561163657600080fd5b505afa15801561164a573d6000803e3d6000fd5b505050506040513d601f19601f8201168201806040525081019061166e9190611e3f565b91508573ffffffffffffffffffffffffffffffffffffffff168273ffffffffffffffffffffffffffffffffffffffff1614156116b057809450505050506116ff565b80806116bb90612ac8565b9150506115dd565b506040517f08c379a00000000000000000000000000000000000000000000000000000000081526004016116f690612692565b60405180910390fd5b92915050565b600061171b600283611b0c90919063ffffffff16565b9050919050565b61172a611b22565b60405180610100016040528060016008811115611770577f4e487b7100000000000000000000000000000000000000000000000000000000600052602160045260246000fd5b8152602001600081526020016040518060800160405280600015158152602001600060018111156117ca577f4e487b7100000000000000000000000000000000000000000000000000000000600052602160045260246000fd5b815260200160006001811115611809577f4e487b7100000000000000000000000000000000000000000000000000000000600052602160045260246000fd5b8152602001858152508152602001848152602001600081526020013073ffffffffffffffffffffffffffffffffffffffff1681526020016000815260200160405180602001604052806000815250815250905092915050565b61186a611b22565b6040518061010001604052806008808111156118af577f4e487b7100000000000000000000000000000000000000000000000000000000600052602160045260246000fd5b815260200160008152602001604051806080016040528060001515815260200160006001811115611909577f4e487b7100000000000000000000000000000000000000000000000000000000600052602160045260246000fd5b815260200160006001811115611948577f4e487b7100000000000000000000000000000000000000000000000000000000600052602160045260246000fd5b81526020016000815250815260200160008152602001600081526020013073ffffffffffffffffffffffffffffffffffffffff16815260200160008152602001838152509050919050565b61199b611b22565b604051806101000160405280600060088111156119e1577f4e487b7100000000000000000000000000000000000000000000000000000000600052602160045260246000fd5b815260200160008152602001604051806080016040528060011515815260200160006001811115611a3b577f4e487b7100000000000000000000000000000000000000000000000000000000600052602160045260246000fd5b815260200160006001811115611a7a577f4e487b7100000000000000000000000000000000000000000000000000000000600052602160045260246000fd5b8152602001858152508152602001848152602001600081526020013073ffffffffffffffffffffffffffffffffffffffff1681526020016000815260200160405180602001604052806000815250815250905092915050565b611adb611bbb565b60405180604001604052803073ffffffffffffffffffffffffffffffffffffffff1681526020016001815250905090565b60008183611b1a9190612884565b905092915050565b60405180610100016040528060006008811115611b68577f4e487b7100000000000000000000000000000000000000000000000000000000600052602160045260246000fd5b815260200160008152602001611b7c611beb565b81526020016000815260200160008152602001600073ffffffffffffffffffffffffffffffffffffffff16815260200160008152602001606081525090565b6040518060400160405280600073ffffffffffffffffffffffffffffffffffffffff168152602001600081525090565b604051806080016040528060001515815260200160006001811115611c39577f4e487b7100000000000000000000000000000000000000000000000000000000600052602160045260246000fd5b815260200160006001811115611c78577f4e487b7100000000000000000000000000000000000000000000000000000000600052602160045260246000fd5b8152602001600081525090565b6000611c98611c93846127b5565b612784565b905082815260208101848484011115611cb057600080fd5b611cbb848285612a86565b509392505050565b600081359050611cd281612c1a565b92915050565b600081519050611ce781612c1a565b92915050565b600081519050611cfc81612c31565b92915050565b600082601f830112611d1357600080fd5b8135611d23848260208601611c85565b91505092915050565b600060808284031215611d3e57600080fd5b611d486080612784565b90506000611d5884828501611cd8565b6000830152506020611d6c84828501611e01565b6020830152506040611d8084828501611e01565b6040830152506060611d9484828501611ced565b60608301525092915050565b600060408284031215611db257600080fd5b611dbc6040612784565b90506000611dcc84828501611cc3565b6000830152506020611de084828501611dec565b60208301525092915050565b600081359050611dfb81612c48565b92915050565b600081519050611e1081612c48565b92915050565b600060208284031215611e2857600080fd5b6000611e3684828501611cc3565b91505092915050565b600060208284031215611e5157600080fd5b6000611e5f84828501611cd8565b91505092915050565b600080600060808486031215611e7d57600080fd5b6000611e8b86828701611cc3565b9350506020611e9c86828701611da0565b925050606084013567ffffffffffffffff811115611eb957600080fd5b611ec586828701611d02565b9150509250925092565b600060208284031215611ee157600080fd5b6000611eef84828501611ced565b91505092915050565b600060808284031215611f0a57600080fd5b6000611f1884828501611d2c565b91505092915050565b600060208284031215611f3357600080fd5b6000611f4184828501611dec565b91505092915050565b600060208284031215611f5c57600080fd5b6000611f6a84828501611e01565b91505092915050565b6000611f7f83836123bb565b905092915050565b6000611f938383612518565b60408301905092915050565b611fa881612a1a565b82525050565b611fb781612999565b82525050565b611fc681612999565b82525050565b6000611fd782612805565b611fe18185612840565b935083602082028501611ff3856127e5565b8060005b8581101561202f57848403895281516120108582611f73565b945061201b83612826565b925060208a01995050600181019050611ff7565b50829750879550505050505092915050565b600061204c82612810565b6120568185612851565b9350612061836127f5565b8060005b838110156120925781516120798882611f87565b975061208483612833565b925050600181019050612065565b5085935050505092915050565b6120a8816129ab565b82525050565b6120b7816129ab565b82525050565b60006120c88261281b565b6120d28185612862565b93506120e2818560208601612a95565b6120eb81612bcd565b840191505092915050565b6120ff81612a2c565b82525050565b61210e81612a3e565b82525050565b61211d81612a50565b82525050565b6000612130601883612873565b91507f63616c6c6572206973206e6f7420746865206f776e65722100000000000000006000830152602082019050919050565b6000612170601683612873565b91507f62616c616e6365202d20726570617920616d6f756e74000000000000000000006000830152602082019050919050565b60006121b0603e83612873565b91507f73656e646572206f662074686520666c6173686c6f616e2068617320746f206260008301527f65207468652061646472657373206f662064796478466c6173686c6f616e00006020830152604082019050919050565b6000612216602483612873565b91507f4e6f206d61726b6574496420666f756e6420666f722070726f7669646564207460008301527f6f6b656e000000000000000000000000000000000000000000000000000000006020830152604082019050919050565b600061227c602a83612873565b91507f62616c616e63652068617320746f20626520686967686572207468616e20726560008301527f70617920616d6f756e74000000000000000000000000000000000000000000006020830152604082019050919050565b60006122e2600c83612873565b91507f726570617920616d6f756e7400000000000000000000000000000000000000006000830152602082019050919050565b6000612322600783612873565b91507f62616c616e6365000000000000000000000000000000000000000000000000006000830152602082019050919050565b6000612362603083612873565b91507f7468652063616c6c657220746f20746869732066756e6374696f6e206973206e60008301527f6f7420534f4c4f20636f6e7472616374000000000000000000000000000000006020830152604082019050919050565b6000610160830160008301516123d460008601826120f6565b5060208301516123e76020860182612547565b5060408301516123fa604086018261246e565b50606083015161240d60c0860182612547565b50608083015161242060e0860182612547565b5060a0830151612434610100860182611fae565b5060c0830151612448610120860182612547565b5060e083015184820361014086015261246182826120bd565b9150508091505092915050565b608082016000820151612484600085018261209f565b5060208201516124976020850182612105565b5060408201516124aa6040850182612114565b5060608201516124bd6060850182612547565b50505050565b6080820160008201516124d96000850182611fae565b5060208201516124ec6020850182612547565b5060408201516124ff6040850182612547565b506060820151612512606085018261209f565b50505050565b60408201600082015161252e6000850182611fae565b5060208201516125416020850182612547565b50505050565b61255081612a10565b82525050565b61255f81612a10565b82525050565b600060208201905061257a6000830184611fbd565b92915050565b60006040820190506125956000830185611f9f565b6125a26020830184612556565b9392505050565b60006040820190506125be6000830185611fbd565b6125cb6020830184612556565b9392505050565b600060408201905081810360008301526125ec8185612041565b905081810360208301526126008184611fcc565b90509392505050565b600060208201905061261e60008301846120ae565b92915050565b6000602082019050818103600083015261263d81612123565b9050919050565b6000604082019050818103600083015261265d81612163565b905061266c6020830184612556565b92915050565b6000602082019050818103600083015261268b816121a3565b9050919050565b600060208201905081810360008301526126ab81612209565b9050919050565b600060208201905081810360008301526126cb8161226f565b9050919050565b600060408201905081810360008301526126eb816122d5565b90506126fa6020830184612556565b92915050565b6000604082019050818103600083015261271981612315565b90506127286020830184612556565b92915050565b6000602082019050818103600083015261274781612355565b9050919050565b600060808201905061276360008301846124c3565b92915050565b600060208201905061277e6000830184612556565b92915050565b6000604051905081810181811067ffffffffffffffff821117156127ab576127aa612b9e565b5b8060405250919050565b600067ffffffffffffffff8211156127d0576127cf612b9e565b5b601f19601f8301169050602081019050919050565b6000819050602082019050919050565b6000819050602082019050919050565b600081519050919050565b600081519050919050565b600081519050919050565b6000602082019050919050565b6000602082019050919050565b600082825260208201905092915050565b600082825260208201905092915050565b600082825260208201905092915050565b600082825260208201905092915050565b600061288f82612a10565b915061289a83612a10565b9250827fffffffffffffffffffffffffffffffffffffffffffffffffffffffffffffffff038211156128cf576128ce612b11565b5b828201905092915050565b60006128e582612a10565b91506128f083612a10565b925082612900576128ff612b40565b5b828204905092915050565b600061291682612a10565b915061292183612a10565b9250817fffffffffffffffffffffffffffffffffffffffffffffffffffffffffffffffff048311821515161561295a57612959612b11565b5b828202905092915050565b600061297082612a10565b915061297b83612a10565b92508282101561298e5761298d612b11565b5b828203905092915050565b60006129a4826129f0565b9050919050565b60008115159050919050565b60008190506129c582612bde565b919050565b60008190506129d882612bf2565b919050565b60008190506129eb82612c06565b919050565b600073ffffffffffffffffffffffffffffffffffffffff82169050919050565b6000819050919050565b6000612a2582612a62565b9050919050565b6000612a37826129b7565b9050919050565b6000612a49826129ca565b9050919050565b6000612a5b826129dd565b9050919050565b6000612a6d82612a74565b9050919050565b6000612a7f826129f0565b9050919050565b82818337600083830152505050565b60005b83811015612ab3578082015181840152602081019050612a98565b83811115612ac2576000848401525b50505050565b6000612ad382612a10565b91507fffffffffffffffffffffffffffffffffffffffffffffffffffffffffffffffff821415612b0657612b05612b11565b5b600182019050919050565b7f4e487b7100000000000000000000000000000000000000000000000000000000600052601160045260246000fd5b7f4e487b7100000000000000000000000000000000000000000000000000000000600052601260045260246000fd5b7f4e487b7100000000000000000000000000000000000000000000000000000000600052602160045260246000fd5b7f4e487b7100000000000000000000000000000000000000000000000000000000600052604160045260246000fd5b6000601f19601f8301169050919050565b60098110612bef57612bee612b6f565b5b50565b60028110612c0357612c02612b6f565b5b50565b60028110612c1757612c16612b6f565b5b50565b612c2381612999565b8114612c2e57600080fd5b50565b612c3a816129ab565b8114612c4557600080fd5b50565b612c5181612a10565b8114612c5c57600080fd5b5056fea26469706673582212202264e209c724d6d0285b38aa7edc17a5f291d588ba05955f91ca9e0bafac21c264736f6c63430008000033",
  "immutableReferences": {},
  "source": "// DyDxSimpleFlash.sol\r\n\r\npragma solidity ^0.8.0;\r\npragma experimental ABIEncoderV2;\r\n\r\nimport \"@openzeppelin/contracts/token/ERC20/IERC20.sol\";\r\nimport \"./interfaces/DyDxFlashloanBase.sol\";\r\nimport \"./interfaces/ICallee.sol\";\r\nimport \"./interfaces/ICToken.sol\";\r\n\r\ninterface Comptroller {\r\n  function enterMarkets(address[] calldata) external returns (uint256[] memory);\r\n  function claimComp(address holder) external;\r\n}\r\n\r\ncontract SimpleDyDxFlashloan is DydxFlashloanBase, ICallee {\r\n    // Mainnet Dai\r\n    // https://etherscan.io/address/0x6b175474e89094c44da98b954eedeac495271d0f#readContract\r\n    address private constant daiAddress = 0x6B175474E89094C44Da98b954EedeAC495271d0F;\r\n    IERC20 dai = IERC20(daiAddress);\r\n\r\n    // Mainnet cDai\r\n    // https://etherscan.io/address/0x5d3a536e4d6dbd6114cc1ead35777bab948e3643#readProxyContract\r\n    address private constant cDaiAddress = 0x5d3a536E4D6DbD6114cc1Ead35777bAB948E3643;\r\n    ICToken cDai = ICToken(cDaiAddress);\r\n\r\n    // Mainnet Comptroller\r\n    // https://etherscan.io/address/0x3d9819210a31b4961b30ef54be2aed79b9c9cd3b#readProxyContract\r\n    address private constant comptrollerAddress = 0x3d9819210A31b4961b30EF54bE2aeD79B9c9Cd3B;\r\n    Comptroller comptroller = Comptroller(comptrollerAddress);\r\n\r\n    // COMP ERC-20 token\r\n    // https://etherscan.io/token/0xc00e94cb662c3520282e6f5717214004a7f26888\r\n    IERC20 compToken = IERC20(0xc00e94Cb662C3520282E6f5717214004A7f26888);\r\n\r\n    address SOLO = 0x1E0447b19BB6EcFdAe1e4AE1694b0C3659614e4e;\r\n    address public user;\r\n    address owner;\r\n\r\n    event Log(string message, uint256 val);\r\n\r\n    struct Data {\r\n        address token;\r\n        uint256 repayAmount;\r\n        uint256 fullAmount;\r\n        bool isDeposit;\r\n    }\r\n\r\n        // Modifiers\r\n    modifier onlyOwner() {\r\n      require(msg.sender == owner, \"caller is not the owner!\");\r\n      _;\r\n    }\r\n\r\n  constructor() {\r\n    // Track the contract owner\r\n    owner = msg.sender;\r\n\r\n    // Enter the cDai market so you can borrow another type of asset\r\n    address[] memory cTokens = new address[](1);\r\n    cTokens[0] = cDaiAddress;\r\n    uint256[] memory errors = comptroller.enterMarkets(cTokens);\r\n    if (errors[0] != 0) {\r\n      revert(\"Comptroller.enterMarkets failed.\");\r\n    }\r\n  }\r\n    // Call dydx and request a flashloan\r\n    function initiateFlashloan(address _solo, address _token, uint256 _amount, uint256 _fullAmount, bool _isDeposit) internal {\r\n        ISoloMargin solo = ISoloMargin(_solo);\r\n\r\n        // Get Market ID from token address\r\n        uint256 marketID = _getMarketIdFromTokenAddress(_solo, _token);\r\n\r\n        // Calculate repay amount & approve\r\n        uint256 repay_amount = _getRepaymentAmountInternal(_amount);\r\n        IERC20(_token).approve(_solo, repay_amount);\r\n\r\n        // 1. Withdraw $\r\n        // 2. Call callFunction (...)\r\n        // 3. Deposit back $\r\n\r\n        Actions.ActionArgs[] memory operations = new Actions.ActionArgs[](3);\r\n\r\n        operations[0] = _getWithdrawAction(marketID, _amount);\r\n        // Encode Data for callfunction\r\n        operations[1] = _getCallAction(\r\n            abi.encode(Data({token: _token, repayAmount: repay_amount, fullAmount: _fullAmount, isDeposit: _isDeposit}))\r\n        );\r\n        operations[2] = _getDepositAction(marketID, repay_amount);\r\n\r\n        Account.Info[] memory accountInfos = new Account.Info[](1);\r\n\r\n        accountInfos[0] = _getAccountInfo();\r\n\r\n        solo.operate(accountInfos, operations);\r\n    }\r\n\r\n    // Do not deposit all your DAI because you must pay flash loan fees\r\n    // Always keep at least 1 DAI in the contract\r\n    function depositDai(uint256 initialAmount) external onlyOwner returns (bool) {\r\n      // Total deposit: 30% initial amount, 70% flash loan\r\n      uint256 totalAmount = (initialAmount * 10) / 3;\r\n\r\n      // loan is 70% of total deposit\r\n      uint256 flashLoanAmount = totalAmount - initialAmount;\r\n\r\n      // Get DAI Flash Loan for \"DEPOSIT\"\r\n      bool isDeposit = true;\r\n      initiateFlashloan(SOLO, daiAddress, flashLoanAmount, totalAmount, isDeposit); // execution goes to `callFunction`\r\n\r\n      // Handle remaining execution inside handleDeposit() function\r\n\r\n      return true;\r\n    }\r\n\r\n    // You must have some Dai in your contract still to pay flash loan fee!\r\n    // Always keep at least 1 DAI in the contract\r\n    function withdrawDai(uint256 initialAmount) external onlyOwner returns (bool) {\r\n      // Total deposit: 30% initial amount, 70% flash loan\r\n      uint256 totalAmount = (initialAmount * 10) / 3;\r\n\r\n      // loan is 70% of total deposit\r\n      uint256 flashLoanAmount = totalAmount - initialAmount;\r\n\r\n      // Use flash loan to payback borrowed amount\r\n      bool isDeposit = false; //false means withdraw\r\n      initiateFlashloan(SOLO, daiAddress, flashLoanAmount, totalAmount, isDeposit); // execution goes to `callFunction`\r\n\r\n      // Handle repayment inside handleWithdraw() function\r\n\r\n      // Claim COMP tokens\r\n      comptroller.claimComp(address(this));\r\n\r\n      // Withdraw COMP tokens\r\n      compToken.transfer(payable(owner), compToken.balanceOf(address(this)));\r\n\r\n      // Withdraw Dai to the wallet\r\n      dai.transfer(owner, dai.balanceOf(address(this)));\r\n\r\n      return true;\r\n    }\r\n\r\n    // This function receives the flashloan\r\n    // Fallback function called by dydx\r\n    function callFunction(\r\n        address sender,\r\n        Account.Info memory account,\r\n        bytes memory data\r\n    ) public override {\r\n        require(\r\n            msg.sender == SOLO,\r\n            \"the caller to this function is not SOLO contract\"\r\n        );\r\n        require(\r\n            sender == address(this),\r\n            \"sender of the flashloan has to be the address of dydxFlashloan\"\r\n        );\r\n\r\n        Data memory data_decoded = abi.decode(data, (Data));\r\n\r\n        uint256 repay_amount = data_decoded.repayAmount;\r\n        uint256 balance = IERC20(data_decoded.token).balanceOf(address(this));\r\n        \r\n        require(\r\n            balance >= repay_amount,\r\n            \"balance has to be higher than repay amount\"\r\n        );\r\n\r\n        if(data_decoded.isDeposit == true) {\r\n          handleDeposit(data_decoded.fullAmount, data_decoded.repayAmount);\r\n        }\r\n\r\n        if(data_decoded.isDeposit == false) {\r\n          handleWithdraw();\r\n        }\r\n\r\n        user = sender;\r\n        emit Log(\"balance\", balance);\r\n        emit Log(\"repay amount\", repay_amount);\r\n        emit Log(\"balance - repay amount\", balance - repay_amount);\r\n    }\r\n\r\n  // You must first send DAI to this contract before you can call this function\r\n  function handleDeposit(uint256 totalAmount, uint256 flashLoanAmount) internal returns (bool) {\r\n    // Approve Dai tokens as collateral\r\n    dai.approve(cDaiAddress, totalAmount);\r\n\r\n    // Provide collateral by minting cDai tokens\r\n    cDai.mint(totalAmount);\r\n\r\n    // Borrow Dai\r\n    cDai.borrow(flashLoanAmount);\r\n\r\n    // Start earning COMP tokens, yay!\r\n    return true;\r\n  }\r\n\r\n  function handleWithdraw() internal returns (bool) {\r\n    uint256 balance;\r\n\r\n    // Get curent borrow Balance\r\n    balance = cDai.borrowBalanceCurrent(address(this));\r\n\r\n    // Approve tokens for repayment\r\n    dai.approve(address(cDai), balance);\r\n\r\n    // Repay tokens\r\n    cDai.repayBorrow(balance);\r\n\r\n    // Get cDai balance\r\n    balance = cDai.balanceOf(address(this));\r\n\r\n    // Redeem cDai\r\n    cDai.redeem(balance);\r\n\r\n    return true;\r\n  }\r\n\r\n  // Fallback in case any other tokens are sent to this contract\r\n  function withdrawToken(address _tokenAddress) public onlyOwner {\r\n    uint256 balance = IERC20(_tokenAddress).balanceOf(address(this));\r\n    IERC20(_tokenAddress).transfer(owner, balance);\r\n  }\r\n}\r\n",
  "sourcePath": "/mnt/c/pr0/projets/Trading Bots/FlashLoans/DyDxFlashLoans/src/contracts/dydx-flashloans/DyDxSimpleFlash.sol",
  "compiler": {
    "name": "solc",
    "version": "0.8.0+commit.c7dfd78e.Emscripten.clang"
  },
  "schemaVersion": "3.4.4",
  "updatedAt": "2022-02-01T11:35:03.954Z",
  "devdoc": {
    "kind": "dev",
    "methods": {},
    "version": 1
  },
  "userdoc": {
    "kind": "user",
    "methods": {},
    "version": 1
  }
}